:020000040800F2
:1000000078070020C50100085D170008C916000820
:1000100059170008610D0008711700080000000062
:10002000000000000000000000000000651700084C
:10003000650D00080000000061170008691700083E
:10004000DF010008DF010008DF010008DF01000810
:10005000DF010008DF010008DF010008DF01000800
:10006000DF010008DF010008DF010008DF010008F0
:10007000DF010008DF010008DF010008DF010008E0
:10008000DF010008DF010008DF010008DF010008D0
:10009000DF010008DF010008DF010008DF010008C0
:1000A000DF010008DF010008DF010008DF010008B0
:1000B000DF010008DF010008DF010008DF010008A0
:1000C000DF010008DF010008DF010008DF01000890
:1000D000DF010008DF010008DF010008DF01000880
:1000E000DF010008DF010008DF01000800F002F86E
:1000F00000F058F814A696E8000CB244B344DA4570
:1001000001D100F04FF8BAE80F000FA696E83000D2
:10011000A5EB040504EB0607AAEB0704A7F101070A
:100120004FEA15154FEA3414A4F10104AC4201D38F
:1001300000F038F813F0010F18BFFB1A43F0010369
:1001400000F001F8DBE71847F01600001017000078
:10015000103A24BF78C878C1FAD8520724BF30C8F3
:1001600030C144BF04680C60704700007047000055
:100170000023002400250026103A28BF78C1FBD8B0
:10018000520728BF30C148BF0B6070471FB59DE8BC
:10019000030000F0ADFB00F073F81FBD10B500F0D8
:1001A000D8F810BD00F008F91146FFF7EFFF01F095
:1001B000E1FA00F013FB03B4FFF7F0FF03BC00F01B
:1001C00015FD00000948804709480047FEE7FEE7A3
:1001D000FEE7FEE7FEE7FEE7FEE7FEE7FEE7FEE7F7
:1001E00004480549054A064B704700006D17000892
:1001F000ED00000878010020780700207803002037
:10020000780300200FB4044910B503AA029800F047
:1002100009F810BC5DF814FB6C00002070477047B3
:1002200070470000074B70B50D467B4400F011F895
:100230000446284600F020F810B14FF0FF3070BDA2
:10024000204670BDBF15000001694A1C0261087894
:10025000704700B58FB0CDE9013100210591054906
:100260007944CDE903101146684600F0F1F80FB06B
:1002700000BD0000E5FFFFFF007B00F0800070473D
:1002800010B54248542100F0B9FA4148542100F019
:10029000B5FA4048542100F0B1FA3F493B483C4A86
:1002A0003F4B08603D490A603A491960531C036599
:1002B000481C1065012008653B48344A39A1784440
:1002C00000F0EEF920B9384878440A3800F08FFA87
:1002D00037482F4A35A1784400F0E2F920B9344874
:1002E00078440A3800F083FA32482A4A2FA1784429
:1002F00000F0D6F920B92F4878440A3800F077FA90
:1003000040232248DC000021224600F0A6F920B15B
:1003100025487844543800F06AFA1D4822464023A4
:10032000002100F09AF920B121487844543800F0B7
:100330005EFA184822461023002100F08EF90028AA
:1003400006D01C487844BDE81040563800F04FBA3B
:1003500010BD104870B5006D20F001040B4800F08E
:1003600017FA0B4800F014FA0A4800F011FA09E0F5
:10037000206D20F00105204600F00AFA204600F02A
:1003800040F82C46002CF3D170BD0000180000206E
:100390006C000020C00000200000002004000020AD
:1003A00008000020720000004615000077000000E1
:1003B000321500001E150000754600F079FAAE46B1
:1003C00005006946534620F00700854618B020B561
:1003D000FFF706FFBDE820404FF000064FF0000792
:1003E0004FF000084FF0000BAC46ACE8C009ACE899
:1003F000C009ACE8C009ACE8C00921F007018D468E
:10040000704770B50446051F00F056FA0068002CCE
:1004100014BF446870BD002C18BFAC423CBF2046DE
:100420006468F8D301680A18AA4218BF456003D16E
:100430002A6805461144016028684119A1421CBF81
:100440006C6070BD6168696021680844286070BD97
:100450002DE9F04106460024D6E90170F568804692
:10046000304603E04146B847641C3046A8470028A0
:10047000F8D12046BDE8F0812DE9F05F054617462A
:100480000C46C86820F4201040F48000C860800644
:1004900002D5084600F069FBE06841F282014FF0A6
:1004A000FF3A0140022903D0204600F0FBFAB9E0F0
:1004B00000F42041B1F5004F0FD1C00306D56168AB
:1004C000E06A884200D80846606006E02069E06281
:1004D0006060606900F0E6F9A061A0680022EEB2F9
:1004E00000280DDAE1688B050AD4C043A06041F40E
:1004F00090302260E0606068411C61600670AAE094
:10050000E0689146226040F40050E060206978BBCA
:10051000606900F0B9F904F124054FF00108A8B1B1
:10052000A08910F4407F08D0E06900F010FA206143
:1005300018B1E06840F4006017E0C4F81C80256141
:10054000E06820F4407040F480600EE0E06900F064
:10055000FEF900282061F0D0E06840F4006010F45B
:10056000407FE06002D140F48070E060206960600C
:10057000E06825696FF0010BC1051ED56168E06A6E
:10058000884200D80846411B04D02246284600F085
:1005900093FAE8BB1FB1E562C4E9015959E0681C50
:1005A000E0626060E069401EA060E06840F4803076
:1005B000E06030462E70BDE8F09F17B100F4803245
:1005C0000AE06068411C61600670E0680A2E40F431
:1005D0008030E06006D00022E16A6068814203D981
:1005E0000B4602E00122F7E70346B4F80CC05B1BA0
:1005F0005FEA4C5C04D4D4F81CC09C4500DD02B317
:10060000814200D80146002BA1EB0008E56200E022
:1006100008E0C4E9015907DD22461946284600F0E2
:100620004BFA08B15046C6E7B8F1000F09D0A169EE
:10063000E5626560A1EB0800A061E06840F0100091
:10064000E06047B16168A069E562491B08446560E4
:10065000A0615846AFE73046ADE770B5C468A5075E
:1006600013D0650211D4B2F5807F09D0B2F5007FB6
:1006700006D0B2F5806F08D1012300F1240106E015
:100680005D1E6FF07F46B54201D3012070BD016150
:10069000C361416024F470611143C160002070BDEA
:1006A0002DE9F0410C461646070047D0104600F0F1
:1006B0006FF82078611C61280AD0722802D0772850
:1006C0003CD102E00125002405E00225042402E0DB
:1006D000082448F2020511F8010B2B2806D06228E5
:1006E00009D011F8010C74280AD00BE045F003057D
:1006F00044F00204EFE745F0040544F00104EAE7A2
:1007000044F010043846214600F09FF8411C15D0F3
:100710000021316171604FF40071F560F161706129
:10072000200704D530460222002100F03FF9306D49
:1007300040F0010030653046BDE8F0810020FBE765
:100740002DE9F0410D460646104C206DC10704D03E
:10075000410804D020F00104F7E722460EE05420BF
:1007600000F0F5F807000ED0206D47F001010843B6
:1007700054212065384600F041F83A462946304673
:10078000BDE8F0418CE70020D6E70000180000200B
:100790002DE9F04704464FF0FF380026C568D4E93C
:1007A0000497A80718D0204600F0BCF9384600F09E
:1007B00056F8002800DA4646280502D54846FFF7D5
:1007C00020FE4C21204600F019F8206D20F0010099
:1007D00020653046BDE8F0874046FBE710B504468B
:1007E000AFF300802046BDE81040FFF7E4BC10B531
:1007F00000F0E2F9BDE8104000F0D8B94FF0000277
:1008000000B5134694469646203922BFA0E80C5006
:10081000A0E80C50B1F12001BFF4F7AF090728BFE1
:10082000A0E80C5048BF0CC05DF804EB890028BF5D
:1008300040F8042B08BF704748BF20F8022B11F086
:10084000804F18BF00F8012B70470EB5CDE90001AD
:1008500000F034FA029069460120ABBE0EBD08B527
:10086000694600900220ABBE08BD1FB58DE80700A9
:1008700069460520ABBE04B010BD1FB58DE80F0062
:1008800069460620ABBEF6E708B569460090092028
:10089000ABBE08BD1CB5CDE9000169460A20ABBE60
:1008A0001CBD704708B5694600900C20ABBE08BD62
:1008B0000048704714010020004870471C010020C8
:1008C000704770477047704738B504460A460020A5
:1008D0006946AFF30080002808BF38BD0246009982
:1008E000204600F090F9012038BD012000F0DFB96A
:1008F000F8B5AFF30080054600200C460C2000BF81
:100900000646A819A0420DD9324669460020AFF329
:100910000080070008BF00F0CAF90098A04218BF85
:100920000546C419FFF7C8FF05600746F01D20F013
:1009300007004619284600F060F9B44208BFF8BD28
:10094000A21B31463868BDE8F84000F05CB970B5CC
:100950000646FFF7B1FF056806F10B0020F007041B
:10096000B4429CBF002070BD2B466A68BAB11068C3
:10097000A04210D304F1080188423CBF506858607F
:1009800007D35168101941601168091B0160586054
:100990001460101D70BD13465268002AE7D121462D
:1009A0002846FFF791FF0028DED170BD2DE9F04108
:1009B000044616460D464769007B80072ED0384610
:1009C000FFF762FF50BB3EB3012E02D0022E25D1AD
:1009D00004E0204600F031F905441DE03846FFF7F9
:1009E00061FFE168002841F01001E16005DA20466E
:1009F00000F058F80120BDE8F081C9030BD562680A
:100A0000E16A914200D81146A26911442269891A0B
:100A1000814200DD08460544002D01DA0220EAE7A4
:100A2000E16A6068E268814206D29103E06203D520
:100A300022F4003141F01002A6690027AE4213DC17
:100A4000E16A814201D90B4600E0034603EB060C44
:100A50002369ACEB030CAC4506DD814201D98C4621
:100A600000E084469C4505D1A760276042F0200045
:100A7000A5620DE0AD1BE669AE1B8142A66000D900
:100A80000846C01A281A20605819606022F0200019
:100A900003490840E060002084F84870ABE700009C
:100AA000BFCFD7FFC16821F4001141F08001C160C0
:100AB00000218160016070472DE9F74F15460C4613
:100AC0004FF0FF3B3848D768D2F814A0074209D04E
:100AD0005046A969FFF7DEFE002819DB3248C04303
:100AE0000740EF604FF000496FF000484C4501D3DC
:100AF000464600E0264600993B4650463246FFF700
:100B0000B4FEA96920F00042B21A1144A96128B1CB
:100B10002846FFF7C7FF5846BDE8FE8FA41BE5D166
:100B20000020F9E770B504460569C06A616888422B
:100B300000D80846E16821F42011E160C90312D50C
:100B4000A84208D02246411B2846FFF7B5FF10B146
:100B50004FF0FF3070BD0020E562C4E90150E0684D
:100B600020F48030E060002070BD10B50446C068FD
:100B700020F02000E060A16AA06988420DD02046E4
:100B8000FFF7D0FFE06820F4405040F01000E06034
:100B9000A06AA0612069E062606044F24001E06800
:100BA0008843E06010BD000010000200002801D062
:100BB00000F01CB87047000010B5014602A000F01C
:100BC0005DF8012010BD000053494752545245447E
:100BD0003A2052656469726563743A2063616E27D6
:100BE00074206F70656E3A200000000001491820E3
:100BF000ABBEFEE7260002007047002101604160A5
:100C000070470C207047034640688C46002818BF88
:100C100088423CBF03464068F8D3186818448842AD
:100C200007D00CF1030020F00700001D411A521AF2
:100C30000146081D0A60FFF7E4BB10B50146C26813
:100C4000900703D0900607D5886A0AE000F05CF8A8
:100C500001210160881E10BD8B69486818440B692A
:100C6000C01A91F848301BB191F84910401A10BDD4
:100C70001103FCD50028FADD401E10BD70B50546F5
:100C80000C460A2000E06D1C00F037F835B12878DA
:100C90000028F8D102E0641C00F02FF814B120788D
:100CA0000028F8D1BDE870400A2000F026B810B541
:100CB00000F02EF8BDE81040FFF778BF10B5431CD8
:100CC00002E010F8011B71B18107FAD14FF0013237
:100CD00002C88C1A8C4314EAC211F9D0C01A0A0651
:100CE00003D0C01E10BDC01A10BD0A0401D0801E62
:100CF00010BD0902FCD0401E10BD08B569468DF834
:100D000000000320ABBE08BD00487047140100205E
:100D100010B5012805D0002103A0FFF7AFFF012087
:100D200010BD09A1F8E7000053494752544D454D05
:100D30003A204F7574206F662068656170206D657C
:100D40006D6F7279000000003A2048656170206D77
:100D5000656D6F727920636F72727570746564006F
:100D6000FEE70000704700002DE9F04F82B00E68EA
:100D7000002E00F0FD8041F20042C4F20102042383
:100D800040F2004E904208BF03234FF6FF7CC4F2AE
:100D9000010E009300240123C1F2100C4FF0000A51
:100DA0004FF0000944E000BF012704F00C030F22BC
:100DB0009A402BEA020207FA03F34FEA9A051A4314
:100DC00046F825204E6840F20C45F202DEF8082075
:100DD00054BF22EA080242EA0802C4F20105CEF832
:100DE00008202A68B30254BF22EA080242EA080235
:100DF0002A60B303DEF8042054BF22EA080242EA64
:100E00000802F303CEF80420DEF800204FF00103BF
:100E100054BF22EA080242EA0802CEF800200E6817
:100E20000AF1010A36FA0AF204F1040400F0A08083
:100E300003FA0AFB16EA0B08F1D04E68664511DC8E
:100E4000122E55D8DFE806F0340A4448545454545E
:100E50005454545454545454544C5000D1F80C909D
:100E600046E000BF4FF6FF72C1F2210296420FDC4E
:100E70000022C1F2110296421AD00022C1F21202DF
:100E8000964215D00022C1F22102964210D02FE0E6
:100E90000022C1F2220296420AD00022C1F231029F
:100EA000964205D00022C1F23202964220D100BF04
:100EB0008A684AB1012A14BFC0F814B0C0F810B053
:100EC0004FF0080914E000BF4FF0040910E000BF24
:100ED000CA6802F108090BE04FF0000908E000BF02
:100EE000CA6802F1040903E0CA6802F10C0900BFF4
:100EF00022460646B8F5807F24BF203A043637687C
:100F00000F25954027EA050509FA02F22A433260C7
:100F1000CA79D2067FF583AF41F21803C4F2020307
:100F20001A68AEF57E7642F001021A601A6802F085
:100F300001020192019A2AF0030256F802B040F62B
:100F40000002C4F20102904210D040F60042C4F206
:100F5000010290423FF428AF41F20002C4F20102C4
:100F6000009F904208BF02271FE700BF00271CE731
:100F700002B0BDE8F08F0000002A08BF090401613B
:100F80007047000040F27410C2F200000068704721
:100F900040F20C0040F27411C2F20000C2F20001F3
:100FA00000780A68104408607047000080B542F27B
:100FB0000000C4F20200016841F01001016003204A
:100FC00000F07AF80F2000F005F800F027F8002074
:100FD00080BD000070B540F20C06C2F2000640F27F
:100FE00014013278C2F200014FF47A730968B3FB3E
:100FF000F2F20446B1FBF2F1084600F04FFB0F2C71
:101000004FF0010508D838B94FF0FF3021460022D3
:10101000002500F025F87460284670BD82B041F2CA
:101020001800C4F202000168022241F001010160CF
:10103000016801F0010101910199416841F080517D
:101040004160406800F08050009000980420C4F295
:101050000100016862F31A61016002B0704700008C
:1010600010B54EF60C5CCEF2000CDCF80030C3F389
:10107000022E8EF00704042C28BF0424BEF10303C3
:101080004FF0FF3E0EFA04F438BF0023A14399400D
:101090000EFA03F39A43114300F00F0200F160438C
:1010A0000901043A03F564436244002848BF02F191
:1010B0000C03197010BD00004EF60C51CEF2000169
:1010C0000A684FF6FF031A4060F30A2242F080607C
:1010D00040F0FD7008607047002804BF0120704791
:1010E0002DE9F04381B042F20008C4F20208044640
:1010F000D8F800000D4600F0070088420CD2D8F85E
:10110000000020F007002843C8F80000D8F80000CD
:1011100000F00700A8426CD1206841F20409810761
:10112000C4F2020917D5410705D5D9F8001041F4DA
:10113000E061C9F80010010705D5D9F8001041F4A5
:101140006051C9F80010D9F80010A26821F0F00130
:101150001143C9F80010C00742D1D8F8000000F0D0
:101160000700A8420CD9D8F8000020F00700284357
:10117000C8F80000D8F8000000F00700A84238D1F5
:101180002068410707D5D9F80010E26821F4E06132
:101190001143C9F80010000708D5D9F800002169EB
:1011A00020F4605040EAC100C9F80000D9F80020DE
:1011B00002F00C00082841F20020C0F27A0051D160
:1011C00041F62603C2F38341C0F60003595CD20303
:1011D0003CD440F60010C0F23D00484342E000BF5E
:1011E000606802280AD001282AD159F8041C890312
:1011F00008D4012001B0BDE8F08300BF59F8041CF9
:101200008901F6D5D9F8001021F003010843C9F887
:101210000000FFF7B7FE064641F28837D9F8000014
:10122000616800F00C00B0EB810F96D0FFF7AAFECA
:10123000801BB842F2D9032001B0BDE8F08300BFA3
:1012400059F8041C8907D4D5DCE700BFD9F8002081
:1012500041F62403C2F34042C0F600039A5C4843BF
:10126000B0FBF2F0D9F8001041F61402C1F30311FB
:10127000C0F60002515C40F2140220FA01F140F283
:101280001000C2F200000068C2F200021160FFF715
:10129000A1FE002001B0BDE8F0830000002804BFDB
:1012A000012070472DE9F04182B00446007841F2F8
:1012B0000006C007C4F202060CD0706800F00C00F3
:1012C000042840F081803068800303D560680028DE
:1012D00000F04E81207880071BD5706810F00C0F4D
:1012E00009D0706800F00C00082840F08B8070680E
:1012F000C00300F187803068800703D5206901288A
:1013000040F036813068616920F0F80040EAC100A1
:1013100030602078000713D4207840072CD4E5698A
:10132000002D00F02081706800F00C00082840F0CB
:10133000AF80012D40F00C81012002B0BDE8F081AA
:10134000A069002800F08C800020C4F24220012116
:10135000C0F88014FFF716FE054600BF706A8007CC
:1013600000F1BA80FFF70EFE401B0228F6D90320D9
:1013700002B0BDE8F08100BFF0695FEAC00808D4A0
:10138000F06940F08050F061F06900F0805000900A
:10139000009847F20007C4F200073868C0054DD432
:1013A000386840F480703860FFF7ECFD054600BFF8
:1013B0003868C00542D4FFF7E5FD401B6428F7D923
:1013C000032002B0BDE8F081706800F00C0008282E
:1013D00003D17068C0033FF576AF6068002800F065
:1013E0000981B0F5A02F00F01D81B0F5803F00F01D
:1013F0001D81306820F480303060306820F4802017
:1014000017E100BF2069002840F20000C4F242202A
:1014100000F08C8001210160FFF7B4FD054600BF9C
:10142000306880073FF56EAFFFF7ACFD401B022828
:10143000F6D9032002B0BDE8F08100BFE0680028C3
:1014400000F09A80052800F0B180012800F0B280F9
:10145000306A20F001003062306A20F00400ACE015
:101460000020C4F242200021C0F88014FFF78AFD5A
:10147000054600BF706A80077FF54EAFFFF782FD1B
:10148000401B0228F6D9032002B0BDE8F08100BF5E
:101490000027C4F2422700203866FFF773FD022DB3
:1014A00005460DD13068800140F1D680FFF76AFD16
:1014B000401B02284FF00300F4D902B0BDE8F081D0
:1014C000306880014FD5FFF75DFD401B02284FF0CB
:1014D0000300F5D9F1E700BF40F21400C2F20000AA
:1014E000006844F6D351C1F26201A0FB0101480A31
:1014F000019000BF00BF0198411E002801913FF4F8
:101500000BAF00BF0198411E002801913FF404AFCA
:1015100000BF0198411E002801913FF4FDAE00BFBD
:101520000198411E00280191E4D1F5E600210160F7
:10153000FFF728FD054600BF306880077FF5E9AE5C
:10154000FFF720FD401B02284FF00300F4D9B4E759
:101550007068216A00F480328A4209D1616A00F41D
:101560007010884204D1002002B0BDE8F08100BFB5
:10157000012002B0BDE8F081306A20F00100306245
:10158000306A20F004003062FFF7FCFC054641F2AF
:10159000883700BF306A800722D5FFF7F3FC401B75
:1015A000B8424FF00300F5D987E700BF306A40F03A
:1015B00004003062306A40F001003062FFF7E2FC64
:1015C000054641F2883700BF306A800708D4FFF72C
:1015D000D9FC401BB842F7D9032002B0BDE8F08126
:1015E000B8F1000F3FF59BAEF06920F08050F0613C
:1015F00095E600BF306820F480303060306820F419
:1016000080203060FFF7BEFC054600BF30688003D5
:101610007FF560AEFFF7B6FC401B64284FF0030077
:10162000F4D94AE7306840F480203060306840F4F4
:1016300080303060FFF7A6FC054600BF30688003AD
:101640003FF548AEFFF79EFC401B6428F6D9032007
:1016500002B0BDE8F08100BF206AB0F5803F05D13F
:101660007168A26821F40031114371607168626A87
:1016700021F4741111430843706001203866FFF7AC
:1016800081FC0446306880013FF56DAFFFF77AFCBE
:10169000001B02284FF00300F4D90EE7411E002082
:1016A000B0EB116F1CBF012070474EF21002CEF25A
:1016B000000251604EF62351CEF20001F0230B7070
:1016C0000721906011607047FEE70000F0B585B01B
:1016D000002641F218000496C4F20200016840F6A8
:1016E000000441F0100101600168C4F2010401F03E
:1016F0001001009100990168002241F02001016071
:1017000001684FF4006701F0200100910099016821
:1017100041F00401016000684FF4006100F0040032
:10172000009000982046FFF727FC4FF4806001AD41
:10173000CDE90106204629460396FFF715FB012057
:10174000CDE9020602200490204629460197FFF7C2
:101750000BFB05B0F0BD0000FEE70000FEE7000057
:101760007047000070470000FFF712BC7047000090
:10177000FEE7000090B0FFF719FC00240120CDE93E
:101780000B44CDE9094406900A904FF4E0104FF461
:10179000803102250F9006A8CDE90714CDE90D513F
:1017A000FFF77CFD20B1EFF3108072B6FEE700BFBB
:1017B0000F20CDE901054FF48060CDE9040401A8B4
:1017C00002210394FFF788FC20B1EFF3108072B67A
:1017D000FEE700BFFFF77AFF02A400BF2046FEF736
:1017E00011FDFBE731313131313100008A68002AC7
:1017F00002DC0022FEF740BE521E8A604A68C0B278
:10180000531C4B60107070473A7474003A74740043
:101810003A7474000000000000000000010203049C
:1018200006070809010202030405060708090A0B56
:101830000C0D0E0F101000005818000800000020BA
:10184000180000005001000870180008180000205F
:1018500060070000700100080000000000000000A8
:1018600000000000010000001000000000127A00DB
:04000005080000ED02
:00000001FF
