:020000040800F2
:1000000078060020B5010008950E00087D0D000857
:10001000910E000871020008A90E000800000000FF
:100020000000000000000000000000009D0E00081D
:100030007502000800000000990E0008A10E0008DB
:10004000CF010008CF010008CF010008CF01000850
:10005000CF010008CF01000879020008CF01000895
:10006000CF0100088902000891020008CF010008B2
:10007000CF010008CF010008CF010008CF01000820
:10008000CF010008CF010008CF010008CF01000810
:10009000CF010008CF010008CF010008CF01000800
:1000A000CF010008CF010008CF010008CF010008F0
:1000B000CF010008CF010008CF010008CF010008E0
:1000C000CF010008CF010008CF010008CF010008D0
:1000D000CF010008CF010008CF010008CF010008C0
:1000E00081020008CF010008CF01000800F002F8EB
:1000F00000F050F814A696E8000CB244B344DA4578
:1001000001D100F047F8BAE80F000FA696E83000DA
:10011000A5EB040504EB0607AAEB0704A7F101070A
:100120004FEA15154FEA3414A4F10104AC4201D38F
:1001300000F030F813F0010F18BFFB1A43F0010371
:1001400000F001F8DBE71847EC0D00000C0E000092
:10015000103A24BF78C878C1FAD8520724BF30C8F3
:1001600030C144BF04680C60704700007047000055
:100170000023002400250026103A28BF78C1FBD8B0
:10018000520728BF30C148BF0B6070471FB51FBD65
:1001900010B510BD00F031F81146FFF7F7FF00F081
:1001A00085FE00F04FF803B4FFF7F2FF03BC00F048
:1001B00057F800000948804709480047FEE7FEE776
:1001C000FEE7FEE7FEE7FEE7FEE7FEE7FEE7FEE707
:1001D00004480549054A064B70470000A50E000873
:1001E000ED0000087800002078060020780200204A
:1001F00078020020704770477047754600F02CF871
:10020000AE4605006946534620F00700854618B003
:1002100020B5FFF7DDFFBDE820404FF000064FF0AE
:1002200000074FF000084FF0000BAC46ACE8C009E7
:10023000ACE8C009ACE8C009ACE8C00921F007018E
:100240008D46704710B50446AFF300802046BDE8E8
:100250001040FFF7A8BF00000048704710000020C2
:1002600001491820ABBEFEE72600020070470000DF
:10027000FEE7000070470000012000F0A9B8000070
:100280004FF4004000F0A4B8082000F0A1B800002E
:10029000102000F09DB80000B0B5044600F0BAF997
:1002A000054640F20000C2F200000078611C18BF51
:1002B000044400BF00F0AEF9401BA042FAD3B0BD29
:1002C00010B501281CD008283CD0102818BF10BD3C
:1002D00040F60004C4F2010420460E21002200F082
:1002E00093F94FF4FA70FFF7D7FF20460E21012251
:1002F00000F08AF94FF4FA70BDE81040FFF7CCBF68
:1003000040F60004C4F2010420460E2100F074F906
:1003100020460E21012200F077F940F27000C2F26F
:1003200000000288511C022A01803BD0012A41D0E2
:10033000002A47D1204602210022BDE8104000F0EB
:1003400063B900BF40F60004C4F201042046022154
:10035000002200F059F94FF4FA70FFF79DFF204694
:100360000221012200F050F920460421002200F071
:100370004BF94FF4FA70FFF78FFF2046042101225A
:1003800000F042F920460821002200F03DF94FF428
:10039000FA70FFF781FF204608210122BDE81040D6
:1003A00000F032B9204608210022BDE8104000F0DC
:1003B0002BB900BF204604210022BDE8104000F008
:1003C00023B900BF89B2042924BF0021018010BDD8
:1003D00040F21441C4F201010A68024214BF0860ED
:1003E0007047FFF76DBF00002DE9F04F82B00E6837
:1003F000002E00F0FD8041F20042C4F2010204230D
:1004000040F2004E904208BF03234FF6FF7CC4F237
:10041000010E009300240123C1F2100C4FF0000ADA
:100420004FF0000944E000BF012704F00C030F2245
:100430009A402BEA020207FA03F34FEA9A051A439D
:1004400046F825204E6840F20C45F202DEF80820FE
:1004500054BF22EA080242EA0802C4F20105CEF8BB
:1004600008202A68B30254BF22EA080242EA0802BE
:100470002A60B303DEF8042054BF22EA080242EAED
:100480000802F303CEF80420DEF800204FF0010349
:1004900054BF22EA080242EA0802CEF800200E68A1
:1004A0000AF1010A36FA0AF204F1040400F0A0800D
:1004B00003FA0AFB16EA0B08F1D04E68664511DC18
:1004C000122E55D8DFE806F0340A444854545454E8
:1004D0005454545454545454544C5000D1F80C9027
:1004E00046E000BF4FF6FF72C1F2210296420FDCD8
:1004F0000022C1F2110296421AD00022C1F2120269
:10050000964215D00022C1F22102964210D02FE06F
:100510000022C1F2220296420AD00022C1F2310228
:10052000964205D00022C1F23202964220D100BF8D
:100530008A684AB1012A14BFC0F814B0C0F810B0DC
:100540004FF0080914E000BF4FF0040910E000BFAD
:10055000CA6802F108090BE04FF0000908E000BF8B
:10056000CA6802F1040903E0CA6802F10C0900BF7D
:1005700022460646B8F5807F24BF203A0436376805
:100580000F25954027EA050509FA02F22A43326051
:10059000CA79D2067FF583AF41F21803C4F2020391
:1005A0001A68AEF57E7642F001021A601A6802F00F
:1005B00001020192019A2AF0030256F802B040F6B5
:1005C0000002C4F20102904210D040F60042C4F290
:1005D000010290423FF428AF41F20002C4F201024E
:1005E000009F904208BF02271FE700BF00271CE7BB
:1005F00002B0BDE8F08F0000C26802EA0103914337
:1006000041EA034101617047002A08BF0904016102
:100610007047000040F27400C2F2000000687047AA
:1006200040F2000040F27401C2F20000C2F2000188
:1006300000780A68104408607047000080B542F2F4
:100640000000C4F20200016841F0100101600320C3
:1006500000F08CF80F2000F005F800F027F80020DB
:1006600080BD000070B540F20006C2F2000640F204
:1006700008013278C2F200014FF47A730968B3FBC3
:10068000F2F20446B1FBF2F1084600F061FB0F2CD8
:100690004FF0010508D838B94FF0FF30214600224D
:1006A000002500F037F87460284670BD82B041F232
:1006B0001800C4F202000168022241F00101016049
:1006C000016801F0010101910199416841F08051F7
:1006D0004160406800F08050009000980420C4F20F
:1006E0000100016862F31A61016002B07047000006
:1006F000002848BF704700F01F01012202FA01F1F3
:100700001C2202EAD0004EF20012CEF2000281500A
:100710007047000010B54EF60C5CCEF2000CDCF811
:100720000030C3F3022E8EF00704042C28BF0424EB
:10073000BEF103034FF0FF3E0EFA04F438BF00236E
:10074000A14399400EFA03F39A43114300F00F02BC
:1007500000F160430901043A03F564436244002850
:1007600048BF02F10C03197010BD00004EF60C5189
:10077000CEF200010A684FF6FF031A4060F30A2226
:1007800042F0806040F0FD7008607047002804BFB0
:10079000012070472DE9F04381B042F20008C4F215
:1007A00002080446D8F800000D4600F00700884211
:1007B0000CD2D8F8000020F007002843C8F8000049
:1007C000D8F8000000F00700A8426CD1206841F280
:1007D00004098107C4F2020917D5410705D5D9F8E4
:1007E000001041F4E061C9F80010010705D5D9F8FF
:1007F000001041F46051C9F80010D9F80010A26847
:1008000021F0F0011143C9F80010C00742D1D8F817
:10081000000000F00700A8420CD9D8F8000020F032
:1008200007002843C8F80000D8F8000000F00700CF
:10083000A84238D12068410707D5D9F80010E268EE
:1008400021F4E0611143C9F80010000708D5D9F878
:100850000000216920F4605040EAC100C9F800009E
:10086000D9F8002002F00C00082841F20020C0F264
:100870007A0051D140F62473C2F38341C0F60003DD
:10088000595CD2033CD440F60010C0F23D0048430E
:1008900042E000BF606802280AD001282AD159F836
:1008A000041C890308D4012001B0BDE8F08300BF17
:1008B00059F8041C8901F6D5D9F8001021F003017C
:1008C0000843C9F80000FFF7A5FE064641F2883745
:1008D000D9F80000616800F00C00B0EB810F96D0F1
:1008E000FFF798FE801BB842F2D9032001B0BDE8A3
:1008F000F08300BF59F8041C8907D4D5DCE700BF9A
:10090000D9F8002040F62273C2F34042C0F600033B
:100910009A5C4843B0FBF2F0D9F8001040F612722E
:10092000C1F30311C0F60002515C40F2080220FA44
:1009300001F140F20400C2F200000068C2F20002BD
:100940001160FFF78FFE002001B0BDE8F0830000CA
:10095000002804BF012070472DE9F04182B0044611
:10096000007841F20006C007C4F202060CD070689D
:1009700000F00C00042840F081803068800303D52B
:100980006068002800F04E81207880071BD57068D1
:1009900010F00C0F09D0706800F00C00082840F02F
:1009A0008B807068C00300F187803068800703D5B2
:1009B0002069012840F036813068616920F0F80034
:1009C00040EAC10030602078000713D42078400747
:1009D0002CD4E569002D00F02081706800F00C0037
:1009E000082840F0AF80012D40F00C81012002B0BA
:1009F000BDE8F081A069002800F08C800020C4F2DE
:100A000042200121C0F88014FFF704FE054600BF14
:100A1000706A800700F1BA80FFF7FCFD401B0228D6
:100A2000F6D9032002B0BDE8F08100BFF0695FEAAB
:100A3000C00808D4F06940F08050F061F06900F01F
:100A400080500090009847F20007C4F20007386811
:100A5000C0054DD4386840F480703860FFF7DAFD87
:100A6000054600BF3868C00542D4FFF7D3FD401BE0
:100A70006428F7D9032002B0BDE8F081706800F067
:100A80000C00082803D17068C0033FF576AF60689A
:100A9000002800F00981B0F5A02F00F01D81B0F50D
:100AA000803F00F01D81306820F480303060306875
:100AB00020F4802017E100BF2069002840F20000E8
:100AC000C4F2422000F08C8001210160FFF7A2FDFA
:100AD000054600BF306880073FF56EAFFFF79AFD0F
:100AE000401B0228F6D9032002B0BDE8F08100BF08
:100AF000E068002800F09A80052800F0B180012805
:100B000000F0B280306A20F001003062306A20F0DC
:100B10000400ACE00020C4F242200021C0F88014A0
:100B2000FFF778FD054600BF706A80077FF54EAF7E
:100B3000FFF770FD401B0228F6D9032002B0BDE884
:100B4000F08100BF0027C4F2422700203866FFF77B
:100B500061FD022D05460DD13068800140F1D6803F
:100B6000FFF758FD401B02284FF00300F4D902B0F4
:100B7000BDE8F081306880014FD5FFF74BFD401B89
:100B800002284FF00300F5D9F1E700BF40F208005A
:100B9000C2F20000006844F6D351C1F26201A0FB2A
:100BA0000101480A019000BF00BF0198411E0028C2
:100BB00001913FF40BAF00BF0198411E0028019145
:100BC0003FF404AF00BF0198411E002801913FF49B
:100BD000FDAE00BF0198411E00280191E4D1F5E669
:100BE00000210160FFF716FD054600BF3068800751
:100BF0007FF5E9AEFFF70EFD401B02284FF0030022
:100C0000F4D9B4E77068216A00F480328A4209D1CD
:100C1000616A00F47010884204D1002002B0BDE87F
:100C2000F08100BF012002B0BDE8F081306A20F001
:100C300001003062306A20F004003062FFF7EAFC05
:100C4000054641F2883700BF306A800722D5FFF79A
:100C5000E1FC401BB8424FF00300F5D987E700BF25
:100C6000306A40F004003062306A40F001003062C7
:100C7000FFF7D0FC054641F2883700BF306A800795
:100C800008D4FFF7C7FC401BB842F7D9032002B0D5
:100C9000BDE8F081B8F1000F3FF59BAEF06920F0A0
:100CA0008050F06195E600BF306820F480303060FD
:100CB000306820F480203060FFF7ACFC054600BFB0
:100CC000306880037FF560AEFFF7A4FC401B64280A
:100CD0004FF00300F4D94AE7306840F480203060D8
:100CE000306840F480303060FFF794FC054600BF68
:100CF000306880033FF548AEFFF78CFC401B64284A
:100D0000F6D9032002B0BDE8F08100BF206AB0F53B
:100D1000803F05D17168A26821F4003111437160F0
:100D20007168626A21F474111143084370600120F4
:100D30003866FFF76FFC0446306880013FF56DAF01
:100D4000FFF768FC001B02284FF00300F4D90EE700
:100D5000411E0020B0EB116F1CBF012070474EF206
:100D60001002CEF2000251604EF62351CEF2000185
:100D7000F0230B700721906011607047FEE70000C0
:100D80002DE9F04786B04FF0000841F21800CDF889
:100D90001480C4F20200016840F6000441F0100122
:100DA00001600168C4F2010401F010010191019990
:100DB0000168012241F02001016001684FF00E0935
:100DC00001F020010191019901684FF0010A41F001
:100DD00004010160016801F00401019101990168B9
:100DE00041F00801016000680E2100F00800019048
:100DF00001982046FFF708FC48F20100002702ADE9
:100E00000290C1F211070226204629460397049654
:100E1000FFF7EAFA20462946CDE9029ACDE9048691
:100E2000FFF7E2FA082004F58064CDE902072046C6
:100E300029460496FFF7D8FA102002A981E881011B
:100E400020462946FFF7D0FA062001210022FFF7AD
:100E500061FC0620FFF74CFC092002210022FFF76D
:100E600059FC0920FFF744FC0A2003210022FFF768
:100E700051FC0A20FFF73CFC282000210022FFF74C
:100E800049FC2820FFF734FC06B0BDE8F0870000DD
:100E9000FEE70000FEE7000070470000704700001A
:100EA000FFF7BEBB70470000FEE7000090B0FFF701
:100EB000C5FB00240120CDE90B44CDE9094406908F
:100EC0000A904FF4E0104FF4803102250F9006A8ED
:100ED000CDE90714CDE90D51FFF73AFD20B1EFF34D
:100EE000108072B6FEE700BF0F20CDE901054FF478
:100EF0008060CDE9040401A802210394FFF746FCB9
:100F000020B1EFF3108072B6FEE700BFFFF738FFA5
:100F1000FEE70000000000000000010203040607D5
:100F20000809010202030405060708090A0B0C0D53
:100F30000E0F1010580F00080000002010000000D5
:100F400050010008680F000810000020680600002B
:100F50007001000800000000010000001000000007
:080F600000127A0000000000FD
:04000005080000ED02
:00000001FF
