:020000040800F2
:10000000A804002001010008E3130008B912000849
:10001000E113000899010008891800080000000099
:10002000000000000000000000000000E7130008CE
:100030009B01000800000000E5130008E913000818
:100040001B0100081B0100081B0100081B01000820
:100050001B0100081B0100081B0100081B01000810
:100060001B0100081B0100081B0100081B01000800
:100070001B0100081B0100081B0100081B010008F0
:100080001B0100081B0100081B0100081B010008E0
:100090001B0100081B0100081B0100081B010008D0
:1000A0001B0100081B0100081B0100081B010008C0
:1000B0001B0100084D1400081B0100081B0100086B
:1000C0001B0100081B0100081B0100081B010008A0
:1000D0001B0100087D1800081B0100081B01000817
:1000E0001B0100081B0100081B010008DFF80CD0F1
:1000F00000F040F800480047591A0008A804002002
:100100000648804706480047FEE7FEE7FEE7FEE7B1
:10011000FEE7FEE7FEE7FEE7FEE7FEE74B1400081A
:10012000ED000008D2B201E000F8012B491EFBD21D
:1001300070470022F6E710B513460A4604461946F2
:10014000FFF7F0FF204610BD30B50B4601460020FA
:100150002022012409E021FA02F59D4205D303FA89
:1001600002F5491B04FA02F52844151EA2F101020A
:10017000F1DC30BD064C074D06E0E06840F00103BD
:1001800094E8070098471034AC42F6D3FFF7B2FF6B
:10019000A81B0008C81B0008FEE7704772B6FEE700
:1001A00010B590F821100022022905D004218163A6
:1001B00080F82020012010BD01680B6823F00E0399
:1001C0000B6001680B6823F001030B6090F840306E
:1001D000C46B012101FA03F3636080F8211080F8F9
:1001E0002020104610BD000010B590F8211000240A
:1001F000022903D00421816301243DE001680A68DB
:1002000022F00E020A6001680A6822F001020A6008
:100210001A4A0168914201D1012121E0174A1432A2
:10022000914201D110211BE0144A2832914201D1A0
:10023000891515E0114A3C32914201D189140FE031
:100240000E4A5032914202D14FF4803108E00B4AFD
:100250006432914202D14FF4801101E04FF080717D
:10026000064A083A5160012180F82110002180F8E7
:100270002010416B01B18847204610BD08000240A4
:1002800070B5044600F004F90546601C02D004482D
:100290000078044400F0FCF8401BA042FAD370BD83
:1002A000040000202DE9F84FDFF8B8910024A9F1EF
:1002B000040B23460F2709F1040AABF1040EC9E031
:1002C0000125A5402A40AA427DD1674ED1F804C03D
:1002D000ACEB0608B44532D014DCBCF1030F3AD0C5
:1002E00009DCBCF1000F2AD0BCF1010F1CD0BCF11D
:1002F000020F31D11DE0BCF1110F17D0BCF1120F6C
:100300002AD119E0B8F5881F19D006DCB8F5803F6E
:1003100015D0B8F5801F1FD111E0B8F5001F0ED021
:10032000B8F5041F18D10AE0CB6815E0CB681B1D97
:1003300012E0CB6808330FE0CB680C330CE08B681D
:100340002BB1012B4FF0080303D0456104E00423D7
:1003500002E0056100E00023FF2A01D8064601E023
:1003600000F104064FEA840501D9A5F12005D6F86D
:10037000008007FA05FC28EA0C0803FA05F548EAAC
:100380000508C6F800804D68ED0062D5374DAE69AE
:1003900046F00106AE61AD6924F0030605F00105E3
:1003A0000095334D06EB050CDCF80850A607360F18
:1003B00007FA06F825EA0805DFF8B880404503D1BA
:1003C0004FF0000817E044E0DFF8AC80404502D170
:1003D0004FF001080FE0DFF8A480404502D14FF054
:1003E000020808E0DFF89880404502D14FF003088A
:1003F00001E04FF0040808FA06F848EA0508CCF8CE
:1004000008804D68D9F80060ED024D4601D51643CD
:1004100000E096432E604D68DAF80060AD02554664
:1004200001D5164300E096432E604D68DBF800606E
:10043000AD035D4601D5164300E096432E604D683E
:10044000DEF80060ED03754601D5164300E09643E3
:100450002E60641C0D682A46E5407FF431AFBDE88C
:10046000F88F000008040140000011100010024045
:100470000000014000080140000C01400010014054
:10048000001401408068084000D00120704700003F
:10049000014880687047000004000020024881681D
:1004A000027811448160704704000020074810B5AD
:1004B000016841F010010160032000F075F80F2081
:1004C00000F006F800F024F8002010BD00200240E3
:1004D00070B50D4D04464FF47A712878B1FBF0F0F9
:1004E0000A490968B1FBF0F000F0DCFA48B9102CB9
:1004F00007D200222146501E00F036F800206C6022
:1005000070BD012070BD000004000020100000201C
:100510000C4808B5816941F001018161816901F0F0
:1005200001010091C16941F08051C161C06900F0D1
:10053000805000900448416821F0E06141F0007172
:10054000416008BD0010024000000140002809DBA6
:1005500000F01F02012191404009800000F1E020DD
:10056000C0F8001170470000F0B40E4B1B680C4639
:10057000C3F30223C3F10705042D00D90425191D77
:10058000072901D2002300E0DB1E012606FA05F14F
:10059000491E214099409E40761E16403143F0BCD2
:1005A00001F084B90CED00E0064900F0070208688C
:1005B0004FF6FF03184040EA0220034A1043086048
:1005C000704700000CED00E00000FA052DE9F0474F
:1005D0000F46050061D0434E306800F00700B84276
:1005E00009D2306820F0070038433060306800F0EE
:1005F0000700B84251D128683B4C810712D540070B
:1006000003D5606840F4E06060602878000703D597
:10061000606840F4605060606068A96820F0F00095
:10062000084360602878C00728D06868012810D087
:100630002168022810D0890700292EDA616821F08C
:10064000030101436160FFF723FF804641F28839CF
:100650000DE021688903EFE78901EDE7FFF718FF57
:10066000A0EB0801494502D90320BDE8F087606886
:10067000696800F00C00B0EB810FEFD1306800F03A
:100680000700B8420BD9306820F0070038433060CB
:10069000306800F00700B84201D00120E5E7287873
:1006A000400705D56068E96820F4E06008436060B1
:1006B0002878000706D56068296920F4605040EA70
:1006C000C100606000F038F86168084AC1F30311A6
:1006D000515CC8400649086006480068FFF7F8FE0C
:1006E0000020C2E700200240001002408E1B0008DC
:1006F00010000020080000200448054900684968EF
:10070000044AC1F30221515CC84070471000002028
:10071000001002409E1B0008044805490068496813
:10072000044AC1F3C221515CC84070471000002048
:10073000001002409E1B00080E4A51680E4801F04E
:100740000C03042B11D0082B0FD10C48C1F38343A9
:10075000C903C05C0AD55168084AC1F34041921EE2
:10076000515C054A5043B0FBF1F0704704494843DF
:10077000704700000010024000127A007E1B000843
:1007800000093D002DE9F84F040070D02078C04DDD
:10079000C00749D06868C0F38100012807D06868A5
:1007A000C0F38100022809D16868C00306D5286813
:1007B000800339D560680028E7D035E06068B0F57F
:1007C000803F0BD010B1B0F5A02F11D0286820F4D5
:1007D00080302860286820F4802002E0286840F4F7
:1007E00080302860606890B1FFF752FE06460AE04C
:1007F000286840F480202860F0E700BFFFF748FE3B
:10080000801B642873D828688003F7D50CE0FFF7B5
:100810003FFE064605E000BFFFF73AFE801B642856
:10082000F0D828688003F7D420789A4E80074FF0DC
:1008300001094FF0000839D5686810F00C0F07D097
:100840006868C0F38100022809D16868C00306D433
:100850002868800714D52069012808D110E0206994
:10086000B0B1C6F80090FFF713FE074605E00AE1B5
:10087000FFF70EFEC01B0228C4D828688007F7D5F2
:100880002868616920F0F80040EAC10028600DE0A6
:10089000C6F80080FFF7FCFD074604E0FFF7F8FD0F
:1008A000C01B022823D828688007F7D420780007C7
:1008B0002CD57948A169D9B1C0F80090FFF7E8FDBF
:1008C000074604E0FFF7E4FDC01B02280FD8686A62
:1008D0008007F7D571484FF4FA510068B0FBF1F08A
:1008E000009000BF0098411E0091FAD20EE080E017
:1008F000C0F80080FFF7CCFD074604E0FFF7C8FD15
:10090000C01B022875D8686A8007F7D42078400792
:1009100060D5E8690027C00008D4E86940F080503D
:10092000E861E869012700F0805000905C480168A8
:10093000C90513D40168834641F480710160FFF753
:10094000A7FD824606E000BFFFF7A2FDA0EB0A006C
:1009500064284ED8DBF80000C005F5D5E068012812
:100960000AD008B1052813D0286A20F001002862B7
:10097000286A20F0040002E0286A40F001002862A2
:10098000E06841F2883B98B1FFF782FD82460BE0B8
:10099000286A40F004002862EEE700BFFFF778FD08
:1009A000A0EB0A0159455AD8286A8007F6D50CE011
:1009B000FFF76EFD824605E0FFF76AFDA0EB0A0136
:1009C00059454CD8286A8007F6D41FB1E86920F051
:1009D0008050E861E06988B36968C1F38101022948
:1009E00044D00228C6F8608004D0FFF751FD0446C9
:1009F00038E034E0FFF74CFD074604E0FFF748FD20
:100A0000C01B02282BD828688001F7D4206AB0F5D3
:100A1000803F05D16868A16820F400300843686011
:100A2000D4E908010843696821F474110843686037
:100A3000C6F86090FFF72CFD044606E025E000BFF5
:100A4000FFF726FD001B022809D828688001F7D58A
:100A50001BE000BFFFF71CFD001B022802D903208A
:100A6000BDE8F88F28688001F4D40EE00128F7D0A3
:100A70006868226A00F48031914204D1616A00F40E
:100A80007010884201D00120EAE70020E8E700006A
:100A90000010024000004242800442421000002048
:100AA0000070004010B5401EB0F1807F01D30120DE
:100AB00010BD4FF0E02460610F21601700F0F6FEDA
:100AC0000020A06107202061002010BD7047704702
:100AD00070B590F83C20012A26D0012480F83C40D3
:100AE000022280F83D2003685A689D6822F0700653
:100AF0000A6832435A600D4B02689A4208D0B2F13C
:100B0000804F05D00A4B9A4202D00A4B9A4204D138
:100B1000496825F080031943916080F83D40002129
:100B200080F83C10084670BD022070BD002C0140CA
:100B3000000400400008004070472DE9F0410446E1
:100B40000068C66805694FF00007A90713D5B1070B
:100B500011D5F91E01610120207720688069800786
:100B6000204602D0FFF7E8FF04E000F0A5F8204699
:100B700000F054F92777680716D5700714D5216857
:100B80006FF004000861022020772068806910F46B
:100B9000407F204602D0FFF7CFFF04E000F08CF842
:100BA000204600F03BF92777280715D5300713D5E5
:100BB00021686FF008000861042020772068C06970
:100BC0008007204602D0FFF7B7FF04E000F074F87A
:100BD000204600F023F92777E80616D5F00614D54D
:100BE00021686FF010000861082020772068C06934
:100BF00010F4407F204602D0FFF79EFF04E000F093
:100C00005BF8204600F00AF92777E80708D0F007DC
:100C100006D021686FF001000861204600F04EF90F
:100C2000280608D5300606D521686FF080000861D7
:100C30002046FFF74BFF680608D5700606D52168E9
:100C40006FF040000861204600F039F9A8060AD587
:100C5000B00608D521686FF0200008612046BDE885
:100C6000F041FFF734BFBDE8F081000000B585B06A
:100C70000021009101910291039100680B49884283
:100C800011D10B48816941F0080181618069694691
:100C900000F00800049001200090022001900390D1
:100CA0000448FFF7FFFA05B000BD00000004004053
:100CB00000100240000C0140704770B5044690F8E7
:100CC0003C0000260D4601280FD0012084F83C008E
:100CD0006AB1042A1DD0082A2FD00C2A3FD0012641
:100CE000002084F83C00304670BD022070BD2068B2
:100CF00000F0FCFB2068816941F0080181612068F7
:100D0000816921F004018161206881692A691143A8
:100D100011E0206800F012FC2068816941F4006154
:100D200081612068816921F4806181612068816925
:100D30002A6941EA02218161D2E7206800F02AFC99
:100D40002068C16941F00801C1612068C16921F0D2
:100D50000401C1612068C1692A69114311E020685A
:100D600000F044FC2068C16941F40061C161206861
:100D7000C16921F48061C1612068C1692A6941EAC1
:100D80000221C161ACE710B5040003D094F83D0026
:100D900010B107E0012010BD002084F83C0020467F
:100DA00000F01EF8022084F83D00211D206800F0AC
:100DB00053FB012084F8460084F83E0084F83F008D
:100DC00084F8400084F8410084F8420084F843002D
:100DD00084F8440084F8450084F83D00002010BDEC
:100DE00008B500680B49884212D10B48C16941F02F
:100DF0000201C161C069002200F0020000901146AA
:100E00001D20FFF7B1FBBDE808401D20FFF79EBB8A
:100E100008BD0000000400400010024070470000C0
:100E200010B50446022249B104290ED0082913D076
:100E300094F84100012816D0012010BD94F83E001E
:100E40000128F9D184F83E200FE094F83F000128F2
:100E5000F2D184F83F2008E094F840000128EBD15B
:100E600084F8402001E084F841200122206800F04D
:100E70002FFB0F492068884203D1426C42F40042A4
:100E800042642068884208D0B0F1804F05D00949FB
:100E9000884202D00849884204D1816801F00701E4
:100EA000062903D0016841F001010160002010BD56
:100EB000002C0140000400400008004070477047CB
:100EC00070477047F8B5016804460868CA684B69FE
:100ED00010F00F0F4FF0000559D003F0010602F497
:100EE0009077374365D0C10705D0D10503D5616C34
:100EF00041F001016164410705D5D90703D0616C58
:100F000041F002016164810705D5D90703D0616C06
:100F100041F004016164010707D502F0200131436B
:100F200003D0616C41F008016164616C00293AD022
:100F3000800604D5900602D5204600F0A8FB206864
:100F40004069616CC0F38010090700D460B320468B
:100F500000F076FB20684069400621D520681430F7
:100F600050E8001F21F0400140E80012002AF5D1AE
:100F7000E06BA8B16D494163E06BFFF735F90028DC
:100F800011D0E06B416B01B0BDE8F040084783062B
:100F90000FD593060DD52046BDE8F84000F077BB8D
:100FA0002046FFF78EFFF8BD2046FFF78AFF6564F5
:100FB000F8BD266B2023012E7CD1C6067AD5D60635
:100FC00078D508684868009048694FF002064006E6
:100FD00040D5E16B086840680004000CE8D0A28DA1
:100FE0008242E5D9E085886920282DD020680C3020
:100FF00050E8001F21F4807140E80012002AF5D16A
:101000002068143050E8001F21F0010140E8001270
:10101000002AF5D12068143050E8001F21F040016B
:1010200040E80012002AF5D184F842302563206898
:101030000C3050E8001F21F0100140E80012002A97
:10104000F5D1E06BFFF7ACF86663A08DE18D401A37
:1010500081B22AE0A08DE18D401A81B2E08D002896
:10106000A6D00029A4D022680C3252E8000F20F448
:10107000907042E80007002FF5D12068143050E846
:10108000002F22F0010240E80027002FF5D184F85C
:101090004230256320680C3050E8002F22F0100207
:1010A00040E80023002BF5D166632046FFF708FFD8
:1010B000F8BDFFE705062BD5150629D594F84100A4
:1010C0002128F5D1A068B0F5805F01D12069B0B1C9
:1010D000206A411C2162216800784860E08C401E33
:1010E0000004000CE084E3D12068C16821F0800195
:1010F000C1602068C16841F04001C160D8E7206A42
:101100000088C0F308004860206A801C2062E5E780
:101110004006CDD55006CBD5CA68204622F0400205
:10112000CA6084F8413000F0C6F8C1E73116000803
:1011300070B5040004D094F84100002510B106E019
:10114000012070BD84F84050204600F023F8242090
:1011500084F841002068C16821F40051C160204634
:1011600000F0F6FA2068016921F4904101612068DD
:10117000416921F02A0141612068C16841F40051B0
:10118000C1606564202084F8410084F842006563F2
:10119000002070BD30B585B0002400940194029405
:1011A00003940068184988422CD11848816941F499
:1011B00080418161816901F480410491816941F03C
:1011C000040181618069124D00F0040004904FF425
:1011D0000070009002200190032003906946284689
:1011E000FFF760F82815CDE9000469462846029407
:1011F000FFF758F8002211462520FFF7B5F9252002
:10120000FFF7A4F905B030BD0038014000100240DE
:101210000008014070472DE9F843044690F841006A
:10122000984616460D46202802D00220BDE8F883D5
:1012300085B17EB100206064212084F84100FFF771
:1012400027F9A6848146E684A0682027B0F5805F50
:1012500002D003E00120E9E7206910B12E46002505
:101260000EE000260CE08021204600F0CDFAA8B95F
:10127000C6B116F8010B21684860E08C401EE0847E
:10128000E08C4B464FF00002CDF800800028EAD1F8
:101290004FF04001204600F0B7FA40B184F84170A9
:1012A0000320C3E735F8020BC0F30800E3E784F836
:1012B00041700020BAE77047FEE7000030B585B006
:1012C00000241A4801940394816941F0100181615E
:1012D000816901F010010491816941F0200181616F
:1012E000816901F020010491816941F0040181616B
:1012F000816901F004010491816941F00801816173
:101300008069022500F0080004904FF4005000901E
:10131000694602950648FEF7C5FF01208DE83100B9
:1013200069460448FEF7BEFF05B030BD001002401C
:10133000001001400008014010B58AB00024079455
:101340001C2168460894FEF7F4FE16481449016013
:101350004721C0E9011444F61F61C0E90314846108
:10136000FFF711FD08B1FEF719FF079407A90D4813
:101370000894FFF7ADFB08B1FEF710FF6020CDE940
:10138000000402940822694606480494FFF795FC7D
:1013900008B1FEF703FF0348FFF768FC0AB010BD71
:1013A00000040040180000200C4810B50A490160F4
:1013B0004FF4E1314160002181600C22C160C0E93D
:1013C00004128161C161FFF7B3FE002803D0BDE8BC
:1013D0001040FEF7E3BE10BD003801406000002061
:1013E000FEE7FEE770477047FFF758B830B58FB09B
:1013F00028216846FEF79DFE14210AA8FEF799FEF3
:1014000001210804CDE90010002402940225049172
:10141000CDE907504FF4E01009906846FFF7B2F9A4
:1014200008B172B6FEE70F20CDE90A054FF48060DF
:10143000CDE90C4002210AA80E94FFF7C7F8002856
:1014400001D072B6FEE70FB030BD70470148FFF71C
:1014500074BB000018000020F0B50268194B1A4C4C
:101460001A4D4FF08047984205D0B84203D0A042B1
:1014700001D0A84203D122F070064A683243984254
:1014800005D0B84203D0A04201D0A84203D122F433
:101490004074CA6822434C6922F0800222430260F1
:1014A0008A68C2620A688262984201D1096901634E
:1014B000012141610169C90703D0016921F00101DE
:1014C0000161F0BD002C0140000400400008004014
:1014D00010B501F01F030121046A99408C43046296
:1014E000016A9A401143016210BD000030B5036AE1
:1014F000026A22F0010202624268846924F07305E4
:101500000C682C4323F002058B682B430A4DA8423C
:101510000BD123F00805CB6822F440722B434D69B0
:1015200023F0040315438A692A43426084614968B1
:101530004163036230BD0000002C014030B5026AF7
:10154000036A23F010030362436884690D6824F47E
:10155000E64444EA05248D6822F0200242EA05129E
:101560000B4DA8420ED1CD6822F0800242EA05124E
:101570004D6923F4406343EA85038D6922F04002FC
:1015800043EA85034360846149688163026230BD38
:10159000002C014030B5036A026A22F480720262B4
:1015A0004268C46923F4007324F073050C682C436B
:1015B0008D6843EA05230C4DA8420ED1CD6823F473
:1015C000006343EA05234D6922F4405242EA0512C2
:1015D0008D6923F4806342EA05124260C461496860
:1015E000C163036230BD0000002C014030B5046AC5
:1015F000026A22F4805202624268C3690D6823F4D1
:10160000E64343EA05238D6824F4005444EA053494
:10161000064DA84204D14D6922F4804242EA851267
:101620004260C36149680164046230BD002C01401E
:1016300010B5406A0021C185C184FFF742FC10BD8E
:1016400001680C3151E8002F22F4907241E8002328
:10165000002BF5D10168143151E8002F22F001026E
:1016600041E80023002BF5D1016B012909D1016864
:101670000C3151E8002F22F0100241E80023002B2A
:10168000F5D1202180F8421000210163704708B590
:1016900090F84210222901D0022008BD82684FF440
:1016A00080539A4201D1016921B1816A9A421BD0CB
:1016B0004AB10AE00268816A5268C2F308020A80ED
:1016C000816A891C08E0026972B10268526802F0FE
:1016D0007F020A70816A491C8162C18D491E09041A
:1016E000090CC18503D01BE002685268F1E701686C
:1016F000CA6822F02002CA600168CA6822F48072B7
:10170000CA6001684A6922F001024A61202180F81A
:10171000421000214163026B012A03D0FFF77AFDDA
:10172000002008BD016301680C3151E8002F22F050
:10173000100241E80023002BF5D101680A68D206A7
:1017400002D50A6849680091818DFFF7B9FBE7E788
:1017500070B5044600680169E26821F44051114304
:1017600001612169A0680843616908432168CA686A
:1017700041F20C639A430243CA6020684169A2693E
:1017800021F44071114341611E492068884202D111
:10179000FEF7C2FF01E0FEF7AFFF00EBC00101EB77
:1017A0000012606864218000B2FBF0F3B3FBF1F338
:1017B0006FF018067343B2FBF0F5B2FBF0F605EBE1
:1017C0008305322303EB0515B5FBF1F5B6FBF1F606
:1017D00005F0F00505EB0615B2FBF0F6B2FBF0F0F4
:1017E000B0FBF1F06FF01802504306EB800003EB02
:1017F0000010B0FBF1F0216800F00F002844886071
:1018000070BD0000003801402DE9F84398461746A6
:101810000D460446089E24E0701C22D0FEF738FED8
:10182000A0EB0800B0421AD8CEB12068C1684907C1
:1018300017D5802D15D0402D13D00168C943090755
:101840000FD401680025406800902046FFF7F8FE9D
:101850000820606484F840500120BDE8F88303202C
:10186000FBE72068006835EA000004D00020B84299
:10187000D2D00020F1E70120F9E700000148FFF78E
:1018800021BB000060000020FEE700000FB4054B04
:1018900010B503A9044A029800F028F810BC5DF8BE
:1018A00014FB0000411A0008140000200907090E6B
:1018B000002804DB00F1E02080F80014704700F0FD
:1018C0000F0000F1E02080F8141D704702E008C806
:1018D000121F08C1002AFAD170477047002001E0AA
:1018E00001C1121F002AFBD1704700002DE9FF4FF4
:1018F00089B09B460446002506E025280BD05A46B1
:101900000B999047641C6D1C20780028F5D10DB010
:101910002846BDE8F08F0027B8460122474900E07D
:10192000074314F8013F203B02FA03F00842F7D1C5
:1019300020782E2819D114F8010F47F004072A281F
:101940000ED06FF02F022078A0F1300109290CD8B9
:1019500008EB880102EB410100EB0108641CF2E78F
:101960000A98641C50F8048B0A9020780028CED086
:10197000642808D0692806D075281ED05A460B99CD
:1019800090476D1C58E00A994FF00A0901C90A9165
:10199000002802DA40422D2102E0390504D52B212E
:1019A0008DF82010012103E0F90704D02021F7E78A
:1019B0008A4608AE0DE00021FAE70A994FF00A09BD
:1019C00001C90A91F7E74946FEF7BEFB303106F838
:1019D000011D0028F7D1ADEB060000F120097807C2
:1019E00001D44FF00108C84502DDA8EB090000E072
:1019F00000208046002706E008A85A46C05D0B99E3
:101A000090476D1C7F1C5745F6DB04E030205A469A
:101A10000B9990476D1CB8F10001A8F10108F5DCA5
:101A200005E016F8010B5A460B9990476D1CB9F169
:101A30000001A9F10109F4DC641C65E70928010033
:101A400013B54FF0FF33012269460248FFF7E3FB6D
:101A500000981CBD60000020FEF728FDFFF7C6FCC3
:101A6000FFF72CFCFFF768FCFFF79EFC08212F48CE
:101A7000FFF7D6F92D4F2E4C39682088C8632DA06A
:101A8000FFF704FFB4F9021033A0FFF7FFFEDFF801
:101A9000E490DFF8E4804FF4967A4FF4005501218A
:101AA0004E464846FEF7EEFC01281BD1208840F642
:101AB000C411884205D200F5FA70208060882D306C
:101AC000608039682088C8635046FEF7D9FBB4F9B6
:101AD000021021A0FFF7DAFE01213046FEF7D2FC0A
:101AE0000128F9D0294646464046FEF7CBFC01289E
:101AF000D5D12088B0F5FA7F05D9A0F5FA702080FD
:101B000060882D38608039682088C8635046FEF7A9
:101B1000B7FBB4F9021010A0FFF7B8FE2946304613
:101B2000FEF7B0FC0128F9D0B9E70000180000204A
:101B3000000000202A2A2A2A2AE888B5E69CBAE56D
:101B4000889DE5A78BE58C96E68890E58A9F212AFB
:101B50002A2A2A2A0A000000E5BD93E5898DE88833
:101B6000B5E69CBAE8A792E5BAA63A2564C2B00ADF
:101B700000000000000801400010014001020203C3
:101B80000405060708090A0B0C0D0E0F10100000C3
:101B9000000000000000010203040607080900001D
:101BA0000000010203040000C81B00080000002020
:101BB00018000000CC180008E01B000818000020E6
:101BC00090040000DC180008F401A6FF01000000EA
:101BD000100000000000000000127A000000000069
:04000005080000ED02
:00000001FF
